:03000000020800F3
:0C080000787FE4F6D8FD758111020847EE
:1009B200204469676974616C20436C6F636B20002B
:1009C200207573696E67203830353120003031323E
:0709D20033343536373839A4
:050AFE00030F000000E1
:10095C007FD051788F08E508C4540F75F00AA4FFB6
:10096C00E508540F2F2275F00A8475F010A4FFAE21
:0D097C00F022D2A17F057E00515DC2A122B4
:100A5D00D3EF9400EE64809480400F7DFADDFE7D2F
:0A0A6D00F8DDFEEF1F70E91E80E6C1
:010A7700225C
:070AF0008FB0C2A0317E228D
:0C0AAA0075F00A8475F00A84E5F093FFF3
:070AB6008FB0D2A0317E22B7
:100A20008B098A0A890BAB09AA0AA90B3189600FC5
:100A30007809E475F00131A23189FF51B680E722CF
:100ABD007F3851F07F0C51F07F0151F07F8041F074
:080ADB00C281D28051E3D281F7
:030AE300000022EE
:0E0ACD00D280D28151E3C28051E3C28141E365
:0A0AE600C280C28151DFD28041E3DB
:100A4000E4FEC28151E3EF30E703D38001C392801B
:0C0A500051DFC281EF25E0FF0EBE08E67A
:010A5C002277
:1009FE00E4FFD280FEC28151DFEF25E0FD3080049E
:100A0E007C0180027C00ED4CFFC28151E30EBE08DA
:010A1E00E4F3
:010A1F0022B4
:0809D900514031E1AF0551402E
:1009E100E4FFFE120ADB308010C3EF94F4EE9401B1
:0D09F10050070FBF00010E80EDC28141E3F1
:070AF700120ADBC28141E39A
:100A9300AE07AC0351CD1209D9AF04514031E15136
:070AA300E67F0A7E00415DC1
:020A7800AC07C9
:100A7A00E4FF51CDAF041209D951CDEC4401FF5125
:090A8A004031E131FE51F741E673
:02090E00A90737
:10091000EB3172EB75F00A84E5F0FBEEF509EF4B75
:10092000F50AED3172ED75F00A84ADF0EEF50BEFDE
:100930004DF50CE93172E975F00A84ADF0EEF50D74
:10094000EF4DF50EAB0AE4FD7FD05193AB0C7D016A
:0C0950007FD05193AB0E7D027FD041930D
:10088C00E4F50851BD7BFF7A0979B251207FC05144
:10089C00F07BFF7A0979C251207FB87E0B515D7FC6
:1008AC000151F07B337D3B7F0C310E7FF47E015187
:1008BC005D7F8051F0E4FD7FD051788F08E50854BE
:1008CC007F3164F50F7D01315CF5107D02315CF5F3
:1008DC001175F00A8475F00A84E5F09009CF93FF46
:1008EC0051B6E51151AE7F3A51B6E510120AAAE5A0
:1008FC001051AE7F3A51B6E50F120AAAE50F51AE70
:02090C0001BD2B
:10080C0002088CE493A3F8E493A34003F68001F26E
:10081C0008DFF48029E493A3F85407240CC8C333ED
:10082C00C4540F4420C8834004F456800146F6DFBC
:10083C00E4800B0102040810204080900AFEE47E44
:10084C00019360BCA3FF543F30E509541FFEE493B1
:10085C00A360010ECF54C025E060A840B8E493A378
:10086C00FAE493A3F8E493A3C8C582C8CAC583CAA3
:10087C00F0A3C8C582C8CAC583CADFE9DEE780BE5B
:010B030000F1
:10098900BB010689828A83E0225002E722BBFE026C
:09099900E32289828A83E493229F
:1009A200FAE6FB0808E6F925F0F618E6CA3AF62256
:00000001FF
