:03000000020800F3
:0C080000787FE4F6D8FD758112020847ED
:060A2C0054696D65200015
:0F0A060001110C010E00011200010F000110017F
:08096B008FB0D2A17F017E00D4
:10097300E4FDFCC3ED9FEC9E5015E4FBFA0BBB00BA
:0F098300010AEB64784A70F50DBD00010C80E4A9
:010992002242
:0B0A1600C2A012096BC2A10F020973FD
:0B0A2100D2A012096BC2A10F020973E2
:1009B8007F147E001209737F38120A167F0C120A00
:0B09C800167F06120A167F01020A16B5
:100993008B0B8A0C890DAB0BAA0CA90D1209ED6008
:1009A30013050DE50D7002050C14F91209EDFF1284
:0509B3000A2180E22290
:1009D300A907E975F00A842430FF120A21E975F0AA
:0A09E3000A84E5F02430FF020A2127
:10093700C2AF851108850E0985120AD2AF7F8012D2
:100947000A167BFF7A0A792C120993AF081209D38A
:100957007F3A120A21AF091209D37F3A120A21AF4F
:040967000A0209D3A4
:03000B000208EDFB
:1008ED00C0E0C0D075D000C007758C3C758AB005CE
:1008FD000FAF0FEFC39414402A750F000512AF12FE
:10090D00EF943C401B751200050EAF0EEF943C406A
:10091D000F750E000511AF11EF94184003751100FE
:0A092D00751001D007D0D0D0E032E1
:10088C00D290D2911209B8758901758C3C758AB0D9
:10089C00D2A9D2AFD28CE5106006E4F5101209375C
:1008AC0020901B7FC87E00120973C2AF0511AF11D7
:1008BC00EFC394184003E4F511D2AF7510012091E9
:1008CC00D57FC87E00120973C2AF050EAF0EEFC301
:1008DC00943C4003E4F50EE4F512D2AF75100180A0
:0108EC00B556
:10080C0002088CE493A3F8E493A34003F68001F26E
:10081C0008DFF48029E493A3F85407240CC8C333ED
:10082C00C4540F4420C8834004F456800146F6DFBC
:10083C00E4800B0102040810204080900A06E47E3C
:10084C00019360BCA3FF543F30E509541FFEE493B1
:10085C00A360010ECF54C025E060A840B8E493A378
:10086C00FAE493A3F8E493A3C8C582C8CAC583CAA3
:10087C00F0A3C8C582C8CAC583CADFE9DEE780BE5B
:010A150000E0
:1009ED00BB010689828A83E0225002E722BBFE0208
:0909FD00E32289828A83E493223B
:00000001FF
